{
  "_format": "hh-sol-artifact-1",
  "contractName": "SupplyChainTracker",
  "sourceName": "contracts/SupplyChainTracker.sol",
  "abi": [
    {
      "anonymous": false,
      "inputs": [
        {
          "indexed": false,
          "internalType": "string",
          "name": "shipmentId",
          "type": "string"
        },
        {
          "indexed": false,
          "internalType": "uint256",
          "name": "timestamp",
          "type": "uint256"
        },
        {
          "indexed": false,
          "internalType": "int256",
          "name": "temperature",
          "type": "int256"
        },
        {
          "indexed": false,
          "internalType": "int256",
          "name": "humidity",
          "type": "int256"
        }
      ],
      "name": "SensorDataAdded",
      "type": "event"
    },
    {
      "anonymous": false,
      "inputs": [
        {
          "indexed": false,
          "internalType": "string",
          "name": "shipmentId",
          "type": "string"
        },
        {
          "indexed": false,
          "internalType": "string",
          "name": "origin",
          "type": "string"
        },
        {
          "indexed": false,
          "internalType": "string",
          "name": "destination",
          "type": "string"
        }
      ],
      "name": "ShipmentCreated",
      "type": "event"
    },
    {
      "anonymous": false,
      "inputs": [
        {
          "indexed": false,
          "internalType": "string",
          "name": "shipmentId",
          "type": "string"
        },
        {
          "indexed": false,
          "internalType": "string",
          "name": "status",
          "type": "string"
        }
      ],
      "name": "ShipmentStatusUpdated",
      "type": "event"
    },
    {
      "inputs": [
        {
          "internalType": "string",
          "name": "_shipmentId",
          "type": "string"
        },
        {
          "internalType": "int256",
          "name": "_temperature",
          "type": "int256"
        },
        {
          "internalType": "int256",
          "name": "_humidity",
          "type": "int256"
        },
        {
          "internalType": "int256",
          "name": "_latitude",
          "type": "int256"
        },
        {
          "internalType": "int256",
          "name": "_longitude",
          "type": "int256"
        }
      ],
      "name": "addSensorData",
      "outputs": [],
      "stateMutability": "nonpayable",
      "type": "function"
    },
    {
      "inputs": [
        {
          "internalType": "string",
          "name": "_id",
          "type": "string"
        },
        {
          "internalType": "string",
          "name": "_origin",
          "type": "string"
        },
        {
          "internalType": "string",
          "name": "_destination",
          "type": "string"
        }
      ],
      "name": "createShipment",
      "outputs": [],
      "stateMutability": "nonpayable",
      "type": "function"
    },
    {
      "inputs": [
        {
          "internalType": "string",
          "name": "_shipmentId",
          "type": "string"
        }
      ],
      "name": "getShipment",
      "outputs": [
        {
          "components": [
            {
              "internalType": "string",
              "name": "id",
              "type": "string"
            },
            {
              "internalType": "string",
              "name": "origin",
              "type": "string"
            },
            {
              "internalType": "string",
              "name": "destination",
              "type": "string"
            },
            {
              "internalType": "string",
              "name": "status",
              "type": "string"
            },
            {
              "internalType": "uint256",
              "name": "createdAt",
              "type": "uint256"
            },
            {
              "internalType": "bool",
              "name": "exists",
              "type": "bool"
            }
          ],
          "internalType": "struct SupplyChainTracker.Shipment",
          "name": "",
          "type": "tuple"
        }
      ],
      "stateMutability": "view",
      "type": "function"
    },
    {
      "inputs": [
        {
          "internalType": "string",
          "name": "_shipmentId",
          "type": "string"
        }
      ],
      "name": "getShipmentData",
      "outputs": [
        {
          "components": [
            {
              "internalType": "uint256",
              "name": "timestamp",
              "type": "uint256"
            },
            {
              "internalType": "int256",
              "name": "temperature",
              "type": "int256"
            },
            {
              "internalType": "int256",
              "name": "humidity",
              "type": "int256"
            },
            {
              "internalType": "int256",
              "name": "latitude",
              "type": "int256"
            },
            {
              "internalType": "int256",
              "name": "longitude",
              "type": "int256"
            },
            {
              "internalType": "string",
              "name": "shipmentId",
              "type": "string"
            }
          ],
          "internalType": "struct SupplyChainTracker.SensorData[]",
          "name": "",
          "type": "tuple[]"
        }
      ],
      "stateMutability": "view",
      "type": "function"
    },
    {
      "inputs": [
        {
          "internalType": "string",
          "name": "",
          "type": "string"
        },
        {
          "internalType": "uint256",
          "name": "",
          "type": "uint256"
        }
      ],
      "name": "shipmentData",
      "outputs": [
        {
          "internalType": "uint256",
          "name": "timestamp",
          "type": "uint256"
        },
        {
          "internalType": "int256",
          "name": "temperature",
          "type": "int256"
        },
        {
          "internalType": "int256",
          "name": "humidity",
          "type": "int256"
        },
        {
          "internalType": "int256",
          "name": "latitude",
          "type": "int256"
        },
        {
          "internalType": "int256",
          "name": "longitude",
          "type": "int256"
        },
        {
          "internalType": "string",
          "name": "shipmentId",
          "type": "string"
        }
      ],
      "stateMutability": "view",
      "type": "function"
    },
    {
      "inputs": [
        {
          "internalType": "string",
          "name": "",
          "type": "string"
        }
      ],
      "name": "shipments",
      "outputs": [
        {
          "internalType": "string",
          "name": "id",
          "type": "string"
        },
        {
          "internalType": "string",
          "name": "origin",
          "type": "string"
        },
        {
          "internalType": "string",
          "name": "destination",
          "type": "string"
        },
        {
          "internalType": "string",
          "name": "status",
          "type": "string"
        },
        {
          "internalType": "uint256",
          "name": "createdAt",
          "type": "uint256"
        },
        {
          "internalType": "bool",
          "name": "exists",
          "type": "bool"
        }
      ],
      "stateMutability": "view",
      "type": "function"
    },
    {
      "inputs": [
        {
          "internalType": "string",
          "name": "_shipmentId",
          "type": "string"
        },
        {
          "internalType": "string",
          "name": "_status",
          "type": "string"
        }
      ],
      "name": "updateShipmentStatus",
      "outputs": [],
      "stateMutability": "nonpayable",
      "type": "function"
    }
  ],
  "bytecode": "0x608060405234801561001057600080fd5b50611b87806100206000396000f3fe608060405234801561001057600080fd5b506004361061007d5760003560e01c80637fee6aa91161005b5780637fee6aa914610103578063992964251461011f578063da34f3d51461013b578063f815937e1461016b5761007d565b80634e3d9e39146100825780635708fc45146100b25780635ceaef5b146100ce575b600080fd5b61009c60048036038101906100979190610f71565b6101a0565b6040516100a991906111b6565b60405180910390f35b6100cc60048036038101906100c79190611204565b61034f565b005b6100e860048036038101906100e39190610f71565b6104c5565b6040516100fa9695949392919061130f565b60405180910390f35b61011d6004803603810190610118919061138c565b610744565b005b61013960048036038101906101349190611404565b61081e565b005b61015560048036038101906101509190610f71565b6109d5565b6040516101629190611558565b60405180910390f35b610185600480360381019061018091906115a6565b610ce8565b60405161019796959493929190611611565b60405180910390f35b60606000826040516101b291906116b5565b908152602001604051809103902060050160009054906101000a900460ff16610210576040517f08c379a000000000000000000000000000000000000000000000000000000000815260040161020790611718565b60405180910390fd5b60018260405161022091906116b5565b9081526020016040518091039020805480602002602001604051908101604052809291908181526020016000905b8282101561034457838290600052602060002090600602016040518060c001604052908160008201548152602001600182015481526020016002820154815260200160038201548152602001600482015481526020016005820180546102b390611767565b80601f01602080910402602001604051908101604052809291908181526020018280546102df90611767565b801561032c5780601f106103015761010080835404028352916020019161032c565b820191906000526020600020905b81548152906001019060200180831161030f57829003601f168201915b5050505050815250508152602001906001019061024e565b505050509050919050565b60008560405161035f91906116b5565b908152602001604051809103902060050160009054906101000a900460ff166103bd576040517f08c379a00000000000000000000000000000000000000000000000000000000081526004016103b490611718565b60405180910390fd5b60006040518060c001604052804281526020018681526020018581526020018481526020018381526020018781525090506001866040516103fe91906116b5565b9081526020016040518091039020819080600181540180825580915050600190039060005260206000209060060201600090919091909150600082015181600001556020820151816001015560408201518160020155606082015181600301556080820151816004015560a082015181600501908161047d9190611944565b5050507ffc3e880105ea11c0388049a232b8d369512c5726ba6fa49454dfd12035c96a15864287876040516104b59493929190611a16565b60405180910390a1505050505050565b6000818051602081018201805184825260208301602085012081835280955050505050506000915090508060000180546104fe90611767565b80601f016020809104026020016040519081016040528092919081815260200182805461052a90611767565b80156105775780601f1061054c57610100808354040283529160200191610577565b820191906000526020600020905b81548152906001019060200180831161055a57829003601f168201915b50505050509080600101805461058c90611767565b80601f01602080910402602001604051908101604052809291908181526020018280546105b890611767565b80156106055780601f106105da57610100808354040283529160200191610605565b820191906000526020600020905b8154815290600101906020018083116105e857829003601f168201915b50505050509080600201805461061a90611767565b80601f016020809104026020016040519081016040528092919081815260200182805461064690611767565b80156106935780601f1061066857610100808354040283529160200191610693565b820191906000526020600020905b81548152906001019060200180831161067657829003601f168201915b5050505050908060030180546106a890611767565b80601f01602080910402602001604051908101604052809291908181526020018280546106d490611767565b80156107215780601f106106f657610100808354040283529160200191610721565b820191906000526020600020905b81548152906001019060200180831161070457829003601f168201915b5050505050908060040154908060050160009054906101000a900460ff16905086565b60008260405161075491906116b5565b908152602001604051809103902060050160009054906101000a900460ff166107b2576040517f08c379a00000000000000000000000000000000000000000000000000000000081526004016107a990611718565b60405180910390fd5b806000836040516107c391906116b5565b908152602001604051809103902060030190816107e09190611944565b507f34560c1e26a6b114f694931e8e4d11a0a5f68ed24c633380f95fd1baf23564398282604051610812929190611a62565b60405180910390a15050565b60008360405161082e91906116b5565b908152602001604051809103902060050160009054906101000a900460ff161561088d576040517f08c379a000000000000000000000000000000000000000000000000000000000815260040161088490611ae5565b60405180910390fd5b6040518060c001604052808481526020018381526020018281526020016040518060400160405280600781526020017f437265617465640000000000000000000000000000000000000000000000000081525081526020014281526020016001151581525060008460405161090291906116b5565b908152602001604051809103902060008201518160000190816109259190611944565b50602082015181600101908161093b9190611944565b5060408201518160020190816109519190611944565b5060608201518160030190816109679190611944565b506080820151816004015560a08201518160050160006101000a81548160ff0219169083151502179055509050507fdb68f65821c840c260f7ee168c8b6de0f8d0cf42f5fbdfbea78e15f3318e4f338383836040516109c893929190611b05565b60405180910390a1505050565b6109dd610ddf565b6000826040516109ed91906116b5565b908152602001604051809103902060050160009054906101000a900460ff16610a4b576040517f08c379a0000000000000000000000000000000000000000000000000000000008152600401610a4290611718565b60405180910390fd5b600082604051610a5b91906116b5565b90815260200160405180910390206040518060c0016040529081600082018054610a8490611767565b80601f0160208091040260200160405190810160405280929190818152602001828054610ab090611767565b8015610afd5780601f10610ad257610100808354040283529160200191610afd565b820191906000526020600020905b815481529060010190602001808311610ae057829003601f168201915b50505050508152602001600182018054610b1690611767565b80601f0160208091040260200160405190810160405280929190818152602001828054610b4290611767565b8015610b8f5780601f10610b6457610100808354040283529160200191610b8f565b820191906000526020600020905b815481529060010190602001808311610b7257829003601f168201915b50505050508152602001600282018054610ba890611767565b80601f0160208091040260200160405190810160405280929190818152602001828054610bd490611767565b8015610c215780601f10610bf657610100808354040283529160200191610c21565b820191906000526020600020905b815481529060010190602001808311610c0457829003601f168201915b50505050508152602001600382018054610c3a90611767565b80601f0160208091040260200160405190810160405280929190818152602001828054610c6690611767565b8015610cb35780601f10610c8857610100808354040283529160200191610cb3565b820191906000526020600020905b815481529060010190602001808311610c9657829003601f168201915b50505050508152602001600482015481526020016005820160009054906101000a900460ff1615151515815250509050919050565b6001828051602081018201805184825260208301602085012081835280955050505050508181548110610d1a57600080fd5b906000526020600020906006020160009150915050806000015490806001015490806002015490806003015490806004015490806005018054610d5c90611767565b80601f0160208091040260200160405190810160405280929190818152602001828054610d8890611767565b8015610dd55780601f10610daa57610100808354040283529160200191610dd5565b820191906000526020600020905b815481529060010190602001808311610db857829003601f168201915b5050505050905086565b6040518060c0016040528060608152602001606081526020016060815260200160608152602001600081526020016000151581525090565b6000604051905090565b600080fd5b600080fd5b600080fd5b600080fd5b6000601f19601f8301169050919050565b7f4e487b7100000000000000000000000000000000000000000000000000000000600052604160045260246000fd5b610e7e82610e35565b810181811067ffffffffffffffff82111715610e9d57610e9c610e46565b5b80604052505050565b6000610eb0610e17565b9050610ebc8282610e75565b919050565b600067ffffffffffffffff821115610edc57610edb610e46565b5b610ee582610e35565b9050602081019050919050565b82818337600083830152505050565b6000610f14610f0f84610ec1565b610ea6565b905082815260208101848484011115610f3057610f2f610e30565b5b610f3b848285610ef2565b509392505050565b600082601f830112610f5857610f57610e2b565b5b8135610f68848260208601610f01565b91505092915050565b600060208284031215610f8757610f86610e21565b5b600082013567ffffffffffffffff811115610fa557610fa4610e26565b5b610fb184828501610f43565b91505092915050565b600081519050919050565b600082825260208201905092915050565b6000819050602082019050919050565b6000819050919050565b610ff981610fe6565b82525050565b6000819050919050565b61101281610fff565b82525050565b600081519050919050565b600082825260208201905092915050565b60005b83811015611052578082015181840152602081019050611037565b60008484015250505050565b600061106982611018565b6110738185611023565b9350611083818560208601611034565b61108c81610e35565b840191505092915050565b600060c0830160008301516110af6000860182610ff0565b5060208301516110c26020860182611009565b5060408301516110d56040860182611009565b5060608301516110e86060860182611009565b5060808301516110fb6080860182611009565b5060a083015184820360a0860152611113828261105e565b9150508091505092915050565b600061112c8383611097565b905092915050565b6000602082019050919050565b600061114c82610fba565b6111568185610fc5565b93508360208202850161116885610fd6565b8060005b858110156111a457848403895281516111858582611120565b945061119083611134565b925060208a0199505060018101905061116c565b50829750879550505050505092915050565b600060208201905081810360008301526111d08184611141565b905092915050565b6111e181610fff565b81146111ec57600080fd5b50565b6000813590506111fe816111d8565b92915050565b600080600080600060a086880312156112205761121f610e21565b5b600086013567ffffffffffffffff81111561123e5761123d610e26565b5b61124a88828901610f43565b955050602061125b888289016111ef565b945050604061126c888289016111ef565b935050606061127d888289016111ef565b925050608061128e888289016111ef565b9150509295509295909350565b600082825260208201905092915050565b60006112b782611018565b6112c1818561129b565b93506112d1818560208601611034565b6112da81610e35565b840191505092915050565b6112ee81610fe6565b82525050565b60008115159050919050565b611309816112f4565b82525050565b600060c082019050818103600083015261132981896112ac565b9050818103602083015261133d81886112ac565b9050818103604083015261135181876112ac565b9050818103606083015261136581866112ac565b905061137460808301856112e5565b61138160a0830184611300565b979650505050505050565b600080604083850312156113a3576113a2610e21565b5b600083013567ffffffffffffffff8111156113c1576113c0610e26565b5b6113cd85828601610f43565b925050602083013567ffffffffffffffff8111156113ee576113ed610e26565b5b6113fa85828601610f43565b9150509250929050565b60008060006060848603121561141d5761141c610e21565b5b600084013567ffffffffffffffff81111561143b5761143a610e26565b5b61144786828701610f43565b935050602084013567ffffffffffffffff81111561146857611467610e26565b5b61147486828701610f43565b925050604084013567ffffffffffffffff81111561149557611494610e26565b5b6114a186828701610f43565b9150509250925092565b6114b4816112f4565b82525050565b600060c08301600083015184820360008601526114d7828261105e565b915050602083015184820360208601526114f1828261105e565b9150506040830151848203604086015261150b828261105e565b91505060608301518482036060860152611525828261105e565b915050608083015161153a6080860182610ff0565b5060a083015161154d60a08601826114ab565b508091505092915050565b6000602082019050818103600083015261157281846114ba565b905092915050565b61158381610fe6565b811461158e57600080fd5b50565b6000813590506115a08161157a565b92915050565b600080604083850312156115bd576115bc610e21565b5b600083013567ffffffffffffffff8111156115db576115da610e26565b5b6115e785828601610f43565b92505060206115f885828601611591565b9150509250929050565b61160b81610fff565b82525050565b600060c08201905061162660008301896112e5565b6116336020830188611602565b6116406040830187611602565b61164d6060830186611602565b61165a6080830185611602565b81810360a083015261166c81846112ac565b9050979650505050505050565b600081905092915050565b600061168f82611018565b6116998185611679565b93506116a9818560208601611034565b80840191505092915050565b60006116c18284611684565b915081905092915050565b7f536869706d656e7420646f6573206e6f74206578697374000000000000000000600082015250565b600061170260178361129b565b915061170d826116cc565b602082019050919050565b60006020820190508181036000830152611731816116f5565b9050919050565b7f4e487b7100000000000000000000000000000000000000000000000000000000600052602260045260246000fd5b6000600282049050600182168061177f57607f821691505b60208210810361179257611791611738565b5b50919050565b60008190508160005260206000209050919050565b60006020601f8301049050919050565b600082821b905092915050565b6000600883026117fa7fffffffffffffffffffffffffffffffffffffffffffffffffffffffffffffffff826117bd565b61180486836117bd565b95508019841693508086168417925050509392505050565b6000819050919050565b600061184161183c61183784610fe6565b61181c565b610fe6565b9050919050565b6000819050919050565b61185b83611826565b61186f61186782611848565b8484546117ca565b825550505050565b600090565b611884611877565b61188f818484611852565b505050565b5b818110156118b3576118a860008261187c565b600181019050611895565b5050565b601f8211156118f8576118c981611798565b6118d2846117ad565b810160208510156118e1578190505b6118f56118ed856117ad565b830182611894565b50505b505050565b600082821c905092915050565b600061191b600019846008026118fd565b1980831691505092915050565b6000611934838361190a565b9150826002028217905092915050565b61194d82611018565b67ffffffffffffffff81111561196657611965610e46565b5b6119708254611767565b61197b8282856118b7565b600060209050601f8311600181146119ae576000841561199c578287015190505b6119a68582611928565b865550611a0e565b601f1984166119bc86611798565b60005b828110156119e4578489015182556001820191506020850194506020810190506119bf565b86831015611a0157848901516119fd601f89168261190a565b8355505b6001600288020188555050505b505050505050565b60006080820190508181036000830152611a3081876112ac565b9050611a3f60208301866112e5565b611a4c6040830185611602565b611a596060830184611602565b95945050505050565b60006040820190508181036000830152611a7c81856112ac565b90508181036020830152611a9081846112ac565b90509392505050565b7f536869706d656e7420616c726561647920657869737473000000000000000000600082015250565b6000611acf60178361129b565b9150611ada82611a99565b602082019050919050565b60006020820190508181036000830152611afe81611ac2565b9050919050565b60006060820190508181036000830152611b1f81866112ac565b90508181036020830152611b3381856112ac565b90508181036040830152611b4781846112ac565b905094935050505056fea2646970667358221220e74d5e28908b9fe91cbb7496e7d3f338c6cbabe8d92019e95ffbbbaf7b01c6ba64736f6c63430008120033",
  "linkReferences": {},
  "deployedLinkReferences": {}
}