{
  "_format": "hh-sol-artifact-1",
  "contractName": "SupplyChainMonitor",
  "sourceName": "contracts/SupplyChainMonitor.sol",
  "abi": [
    {
      "anonymous": false,
      "inputs": [
        {
          "indexed": false,
          "internalType": "int256",
          "name": "temperature",
          "type": "int256"
        },
        {
          "indexed": false,
          "internalType": "int256",
          "name": "humidity",
          "type": "int256"
        },
        {
          "indexed": false,
          "internalType": "int256",
          "name": "latitude",
          "type": "int256"
        },
        {
          "indexed": false,
          "internalType": "int256",
          "name": "longitude",
          "type": "int256"
        },
        {
          "indexed": false,
          "internalType": "uint256",
          "name": "timestamp",
          "type": "uint256"
        }
      ],
      "name": "NewSensorData",
      "type": "event"
    },
    {
      "inputs": [],
      "name": "getLatestSensorData",
      "outputs": [
        {
          "internalType": "int256",
          "name": "temperature",
          "type": "int256"
        },
        {
          "internalType": "int256",
          "name": "humidity",
          "type": "int256"
        },
        {
          "internalType": "int256",
          "name": "latitude",
          "type": "int256"
        },
        {
          "internalType": "int256",
          "name": "longitude",
          "type": "int256"
        },
        {
          "internalType": "uint256",
          "name": "timestamp",
          "type": "uint256"
        }
      ],
      "stateMutability": "view",
      "type": "function"
    },
    {
      "inputs": [
        {
          "internalType": "uint256",
          "name": "index",
          "type": "uint256"
        }
      ],
      "name": "getSensorDataAtIndex",
      "outputs": [
        {
          "internalType": "int256",
          "name": "temperature",
          "type": "int256"
        },
        {
          "internalType": "int256",
          "name": "humidity",
          "type": "int256"
        },
        {
          "internalType": "int256",
          "name": "latitude",
          "type": "int256"
        },
        {
          "internalType": "int256",
          "name": "longitude",
          "type": "int256"
        },
        {
          "internalType": "uint256",
          "name": "timestamp",
          "type": "uint256"
        }
      ],
      "stateMutability": "view",
      "type": "function"
    },
    {
      "inputs": [],
      "name": "getSensorDataCount",
      "outputs": [
        {
          "internalType": "uint256",
          "name": "",
          "type": "uint256"
        }
      ],
      "stateMutability": "view",
      "type": "function"
    },
    {
      "inputs": [
        {
          "internalType": "int256",
          "name": "_temperature",
          "type": "int256"
        },
        {
          "internalType": "int256",
          "name": "_humidity",
          "type": "int256"
        },
        {
          "internalType": "int256",
          "name": "_latitude",
          "type": "int256"
        },
        {
          "internalType": "int256",
          "name": "_longitude",
          "type": "int256"
        }
      ],
      "name": "logSensorData",
      "outputs": [],
      "stateMutability": "nonpayable",
      "type": "function"
    },
    {
      "inputs": [
        {
          "internalType": "uint256",
          "name": "",
          "type": "uint256"
        }
      ],
      "name": "sensorDataHistory",
      "outputs": [
        {
          "internalType": "int256",
          "name": "temperature",
          "type": "int256"
        },
        {
          "internalType": "int256",
          "name": "humidity",
          "type": "int256"
        },
        {
          "internalType": "int256",
          "name": "latitude",
          "type": "int256"
        },
        {
          "internalType": "int256",
          "name": "longitude",
          "type": "int256"
        },
        {
          "internalType": "uint256",
          "name": "timestamp",
          "type": "uint256"
        }
      ],
      "stateMutability": "view",
      "type": "function"
    }
  ],
  "bytecode": "0x608060405234801561001057600080fd5b5061074f806100206000396000f3fe608060405234801561001057600080fd5b50600436106100575760003560e01c80631eb21a091461005c5780639db235091461007a578063a73d9367146100ae578063c0b176a6146100d0578063d47342c8146100ec575b600080fd5b610064610120565b6040516100719190610426565b60405180910390f35b610094600480360381019061008f9190610472565b61012c565b6040516100a59594939291906104b8565b60405180910390f35b6100b6610209565b6040516100c79594939291906104b8565b60405180910390f35b6100ea60048036038101906100e59190610537565b6102f6565b005b61010660048036038101906101019190610472565b6103c7565b6040516101179594939291906104b8565b60405180910390f35b60008080549050905090565b60008060008060008080549050861061017a576040517f08c379a0000000000000000000000000000000000000000000000000000000008152600401610171906105fb565b60405180910390fd5b600080878154811061018f5761018e61061b565b5b90600052602060002090600502016040518060a001604052908160008201548152602001600182015481526020016002820154815260200160038201548152602001600482015481525050905080600001518160200151826040015183606001518460800151955095509550955095505091939590929450565b60008060008060008060008054905011610258576040517f08c379a000000000000000000000000000000000000000000000000000000000815260040161024f90610696565b60405180910390fd5b600080600160008054905061026d91906106e5565b8154811061027e5761027d61061b565b5b90600052602060002090600502016040518060a00160405290816000820154815260200160018201548152602001600282015481526020016003820154815260200160048201548152505090508060000151816020015182604001518360600151846080015195509550955095509550509091929394565b60006040518060a001604052808681526020018581526020018481526020018381526020014281525090506000819080600181540180825580915050600190039060005260206000209060050201600090919091909150600082015181600001556020820151816001015560408201518160020155606082015181600301556080820151816004015550507f703dafa04e19bb64fff769632938865a796549fd51f9e8055be8afb21bf4106885858585426040516103b89594939291906104b8565b60405180910390a15050505050565b600081815481106103d757600080fd5b90600052602060002090600502016000915090508060000154908060010154908060020154908060030154908060040154905085565b6000819050919050565b6104208161040d565b82525050565b600060208201905061043b6000830184610417565b92915050565b600080fd5b61044f8161040d565b811461045a57600080fd5b50565b60008135905061046c81610446565b92915050565b60006020828403121561048857610487610441565b5b60006104968482850161045d565b91505092915050565b6000819050919050565b6104b28161049f565b82525050565b600060a0820190506104cd60008301886104a9565b6104da60208301876104a9565b6104e760408301866104a9565b6104f460608301856104a9565b6105016080830184610417565b9695505050505050565b6105148161049f565b811461051f57600080fd5b50565b6000813590506105318161050b565b92915050565b6000806000806080858703121561055157610550610441565b5b600061055f87828801610522565b945050602061057087828801610522565b935050604061058187828801610522565b925050606061059287828801610522565b91505092959194509250565b600082825260208201905092915050565b7f496e646578206f7574206f6620626f756e647300000000000000000000000000600082015250565b60006105e560138361059e565b91506105f0826105af565b602082019050919050565b60006020820190508181036000830152610614816105d8565b9050919050565b7f4e487b7100000000000000000000000000000000000000000000000000000000600052603260045260246000fd5b7f4e6f2073656e736f72206461746120617661696c61626c650000000000000000600082015250565b600061068060188361059e565b915061068b8261064a565b602082019050919050565b600060208201905081810360008301526106af81610673565b9050919050565b7f4e487b7100000000000000000000000000000000000000000000000000000000600052601160045260246000fd5b60006106f08261040d565b91506106fb8361040d565b9250828203905081811115610713576107126106b6565b5b9291505056fea26469706673582212208343e32ac4a88a5cfd9a5aebf7bae09c3a2cef49d87bff92ec744f2f1ded054064736f6c63430008120033",
  "linkReferences": {},
  "deployedLinkReferences": {}
}